:100000004CC02DC375C074C073C06FC571C070C0C3
:100010006FC06EC06DC06CC087C56AC069C070C15A
:1000200087C139C140C13FC13EC153C15AC15FC13F
:1000300009021200010100806409040000000000B0
:10004000000012011001FF000008C016DC050001CD
:100050000102000122035200470042004C0045000B
:10006000440043006F006E00740072006F006C006B
:100070006C006500720020037A0061006B006B0069
:1000800065006D0062006C0065002E0063006F006B
:100090002E0075006B000403090411241FBECFE578
:1000A000D2E0DEBFCDBF84B78093A80014BE2FE09E
:1000B00088E190E00FB6F894A89581BD0FBE21BDF0
:1000C00081B5886481BD10E0A0E6B0E0E4EEFBE01D
:1000D00002C005900D92AA36B107D9F710E0AAE642
:1000E000B0E001C01D92A83AB107E1F727D478C566
:1000F00087CF9B016B3F91E0790728F4682FC901F6
:10010000805090405BD508958B3F21E0920730F4FA
:10011000805090403CD580936A0002C010926A00E3
:100120008AE690E008958BE690E0089580916B0058
:10013000982F91509E3F60F0811102C0C49801C079
:10014000C49A8CB58F7D8CBD80B5886080BD07C09A
:1001500090B5977F90BD9CB590629CBD8BBD809102
:100160006C00982F91509E3F48F0811102C0C198B9
:1001700001C0C19A8AB58F7D8ABD04C09AB59062CC
:100180009ABD88BD80916D00982F91509E3F48F098
:10019000811102C0C09801C0C09A8AB58F778ABD0C
:1001A00008959AB590689ABD89BD089580936B00B3
:1001B00060936C0040936D00B9DF0895BC9AB99AC2
:1001C000B89A40E060E080E0F1DF089541E050E05F
:1001D0006BEF71E08EE690E0CAD4A5DF43E050E01B
:1001E0006CEF71E0C4D40895FF920F931F93CF93E7
:1001F000DF93CFE6D0E0F12C8E018881882301F1D6
:1002000089819A8101969A838983813A9F40C0F0BF
:10021000FF2021F081E0F8120FC008C041E050E05B
:100220006BEF71E08EE690E0BAD406C07CDF43E06D
:1002300050E06CEF71E0B3D4F801108212821182A9
:10024000F3942396F2E0FF12D7CFDF91CF911F9165
:100250000F91FF9008958EE690E0089590E0FC01E4
:10026000EE0FFF1FE80FF91FE159FF4F81E0808378
:100270001282118208951F93CF93DF93EC0156D31E
:10028000498150E0FA013197E930F10508F053C097
:10029000E15FFF4F09944C816B818A8187DF81E0A8
:1002A000DDDF80E049C01A813EDF2981253039F049
:1002B000263041F0243041F4FC01108305C0FC01DC
:1002C000118302C0FC01128331DF81E0C7DF80E0CF
:1002D00033C0C1DF2A81FC01208380E0BFDF80E0E2
:1002E0002BC06C817D818A8104DF80E025C08C81F8
:1002F0009D810ADF90938D0080938C0081E01CC06B
:10030000AADFEC0110DFFC0188818093640080810A
:10031000809365008181809366008281809367006D
:1003200080E690E090938D0080938C0088E004C07C
:10033000D8D380E001C080E0DF91CF911F91089574
:10034000DF92EF92FF920F931F93CF93DF93F89476
:1003500008E010E0E12C6894FF24F7F8DF2CDE0CB5
:10036000D1BE6AD1C82FD92FC43389E0D8070CF485
:10037000ED2CF6940150110989F78E2D815081BF23
:1003800081B70E2D10E00F5F1F4F90E0081719077F
:10039000B4F052D1845399409C0122F42227332790
:1003A000281B390B2C173D0714F4E1B6E90181B77E
:1003B0008F5F81BF81B790E00817190754F7E1BE3E
:1003C000789461B78FEF91E0F9D3DF91CF911F91CE
:1003D0000F91FF90EF90DF9008958FEF91E0D7D3CA
:1003E0008F3F09F081BF0895CF93DF9380918E00F6
:1003F00083500AF496C020918B0090918A009D3220
:1004000009F08DC0883009F08AC0CCE0D0E0C21B72
:10041000D109CE56DF4F83EC80937E008AE580932E
:100420006800109275008881807619F0CE0123DF74
:100430006DC09A81109287008981811106C0109247
:10044000880027E830E082E05DC0853031F4909389
:100450008F0027E830E080E055C08630E1F58B81E1
:10046000813041F482E490E090938D0080938C0081
:1004700082E12DC0823041F480E390E090938D00C2
:1004800080938C0082E123C08330F1F4911108C085
:1004900086E990E090938D0080938C0084E017C0F3
:1004A000913041F486E790E090938D0080938C002A
:1004B00080E20DC0923051F484E590E090938D007D
:1004C00080938C0082E203C080E001C080E090E471
:1004D000909375001BC0883071F0893031F490938F
:1004E000910027E830E080E00DC08A3041F027E835
:1004F00030E080E007C021E930E081E003C027E878
:1005000030E081E030938D0020938C009F81911129
:1005100004C09E81981708F4892F80936900109277
:100520008E008091680084FF3CC0809169008F3FFD
:10053000C1F1C82F893008F0C8E08C1B8093690096
:10054000EEE7F0E0908188E889278083CC2309F4E6
:100550004AC0E0918C00F0918D008091750086FF7B
:1005600009C08C2FAFE7B0E094919D9331968150F4
:10057000D9F707C08C2FAFE7B0E091919D938150E0
:10058000E1F7F0938D00E0938C006C2F8FE790E003
:100590004FD0CC5FCC3018F48FEF80936900C093BC
:1005A000680086B38C70B1F483E196B39C7099F4C3
:1005B0008150D9F710928F0010928900C1E081110B
:1005C000C0E080917600C81302C013C0B9DEC093AA
:1005D00076000FC084E1C1E08111C0E08091760017
:1005E000C813F4CF06C06C2F8FE790E021D0CC5F0A
:1005F000D3CFDF91CF91089585B7826085BF8BB748
:1006000080648BBF0895A82FB92F80E090E041E06F
:1006100050EA609530E009C02D9182279795879523
:1006200010F084279527305EC8F36F5FA8F3089514
:10063000EADF8D939D930895A6E088279927AA95D0
:1006400069F00197E1F3B399FCCFB39BFECF81E052
:100650009927A6B3019611F0AC70D9F70895CF93FE
:10066000CFB7CF93C395B39BE9F7B39B0BC0B39BB5
:1006700009C0B39B07C0B39B05C0B39B03C0B39B2A
:1006800001C0D3C00F92DF93C0918B00DD27CE56FF
:10069000DF4F012EB39B03C0DF910F90E6CF2F9366
:1006A0000F931F934F932FEF4F6F06B303FB20F968
:1006B0005F933F9350E03BE065C016B3012650299D
:1006C00053FDC89556B3012703FB25F92F7306B3D5
:1006D000B1F05027102713FB26F906B22230F0F0B4
:1006E00000C016B3012703FB27F90126502906B2E3
:1006F0002430E8F54F77206816B30000F6CF502776
:100700004F7D206206B2102F000000C006B3002605
:100710005029102713FB26F906B2E2CF4F7B06B310
:10072000206400C0DACF012650291C7006B269F19E
:100730004E7F2160012F16B328C0002650294D7F1F
:1007400006B22260102F29C0012650294B7F06B225
:100750002460012F2DC016B301265029477F286041
:10076000000006B22EC04F7E06B3206130C0422783
:1007700006B3499300265029102706B24FEF13FB0A
:1007800020F9297F16B379F21C7059F101265029FE
:1007900006B2012703FB21F9237F06B371F200267D
:1007A00050293150D0F006B2102713FB22F9277ED2
:1007B00016B351F201265029012703FB06B223F993
:1007C0002F7C49F2000006B3102713FB24F9002602
:1007D000502906B22F7939F270CF10E41ABF0027E2
:1007E00017C03B503195C31BD04010E41ABF08819D
:1007F000033CF9F00B34E9F0209189001981110FC5
:100800001213EDCF093651F10D3211F0013E39F7D7
:10081000009390003F915F914F911F910F912F9105
:10082000DF910F90CAB7C6FD1DCFCF91CFBFCF913B
:10083000189520919000222369F310918E001123C6
:1008400021F5343022F130938E0020938A001091EC
:100850008B003BE0311B30938B0019C000918E0060
:1008600001309CF40AE53091680034FD11C000931A
:100870006800CEE7D0E010C0052710E000C021C01E
:10088000052710E0C89508BB14C03AE501C032ED59
:10089000032EC0E0D0E032E017B31C60C39A08B367
:1008A00017BB5CE020E84FEF20FF052708BB27952A
:1008B00017951C3F28F700004552B0F720FF052789
:1008C000279508BB17951C3FB8F629913A9561F713
:1008D000037F10918F00110F08BBC250D04011F060
:1008E0001093890010E41ABF086017B3137F402FDC
:1008F000437F54E05A95F1F708BB17BB48BB8ACF3A
:10090000CF93C82F81110AC00EC06EDD9091770081
:100910009923D9F310927700C15029F08091770084
:10092000882399F3F7CFF6D0CF91089581E0809393
:10093000790010927B0010927A000895CF93DF9394
:1009400000D01F92CDB7DEB780E890E00FB6F894E4
:1009500086BD96BD0FBE88B980B5826080BD80B56A
:10096000816080BD83EA8ABD83E083BF82E089BF66
:1009700087E080BF80E68CBD21DC28DCD4DB43E04F
:1009800050E0BC01CE010196E9D027DDBB9ABCD076
:10099000882331F140E060E080E008DC6894DD24E9
:1009A000D4F80F2EF8EEEF2EF3E0FF2EF02D0CE929
:1009B00011E0A895C701F8013197F1F70197D9F730
:1009C00040E060E08FEFF2DBC701F8013197F1F70B
:1009D0000197D9F740E060E080E0E8DBDA9449F77E
:1009E00084EC99E02CE931E0F9013197F1F70197B6
:1009F000D9F7BB9801DE789413E040E060E08FEF18
:100A0000D5DB88E27DDF40E06FEF80E0CFDB88E27E
:100A100077DF4FEF60E080E0C9DB88E271DF1150E3
:100A200061F740E060E080E0C1DB82E369DF7BDB0F
:100A300043E050E0BE016F5F7F4F90D077DB76DF01
:100A40000AE710E00F2EF9E7EF2EF0E0FF2EF02D71
:100A5000809177008823D1F110927700FCDBFC01B4
:100A60002081222391F1F801808191810196918367
:100A70008083F7013081332361F0892F9927869590
:100A8000869530E02817390700F5108210927C0017
:100A90001CC080917C008F5F803118F480937C00B3
:100AA00014C010927C003FDBFC018081882311F090
:100AB000815080838181882311F0815081838281DC
:100AC000882311F08150828331DB8EDB8DDC8091B5
:100AD0007800882321F084E613DFBB9A34D01AD043
:100AE000B7CF81E08093780008951F920F920FB6E0
:100AF0000F9211248F9381E0809377008F910F9054
:100B00000FBE0F901F9018958091A80083FB882737
:100B100080F9089580917D00882329F081B588644B
:100B200081BD10927D0008951F920F920FB60F9213
:100B300011248F9381E080937D008F910F900FBEE1
:100B40000F901F901895F89428E088E190E00FB678
:100B5000F894A89581BD0FBE21BDFFCFFB01DC013C
:100B600002C001900D9241505040D8F70895DC0129
:100B7000CB01FC01E199FECF06C0FFBBEEBBE09AC2
:100B800031960DB20D9241505040B8F70895E19959
:100B9000FECF9FBB8EBBE09A99278DB30895DC01F1
:100BA000A40FB51F4150504040F0CB01840F951F5A
:100BB0002E9105D041505040D8F70895262FE19945
:100BC000FECF9FBB8EBBE09A01970DB2021639F0A3
:100BD0001CBA2DBB0FB6F894E29AE19A0FBE0895A5
:040BE000F894FFCFB7
:0A0BE400000101FB000000005AFFB1
:00000001FF
