:1000000080C0D7C0A9C0A8C0A7C07DC6A5C0A4C0D5
:10001000A3C0A2C0A1C0A0C095C69EC09DC006003E
:10002000FF0900A101150026FF0075089501850153
:100030000900B20201950485020900B2020195018E
:1000400085030900B20201950385040900B202018B
:10005000950185050900B20201950185060900B2E6
:100060000201950185070900B20201950185080981
:1000700000B20201950285090900B20201950185CD
:100080000A0900B20201C0090222000101008064D5
:100090000904000001030000000921010100012200
:1000A0006900070581030800C81201100100000063
:1000B00008C016DF050002010200012203520047BA
:1000C0000042004C004500440043006F006E007485
:1000D0000072006F006C006C006500720020037AF3
:1000E0000061006B006B0065006D0062006C0065D4
:1000F000002E0063006F002E0075006B00040309E2
:10010000040011241FBECFE5D2E0DEBFCDBF84B70F
:100110008093BA0014BE2FE088E190E00FB6F89407
:10012000A89581BD0FBE21BD81B5886481BD10E059
:10013000A0E6B0E0E0E0FEE002C005900D92A83637
:10014000B107D9F710E0A8E6B0E001C01D92AA3BC4
:10015000B107E1F701D552C653CFA82FB92F80E0E0
:1001600090E041E050EA609530E009C02D9182278F
:100170009795879510F084279527305EC8F36F5FB9
:10018000A8F30895EADF8D939D930895A6E088274C
:100190009927AA9569F00197E1F3B399FCCFB39B36
:1001A000FECF81E09927A6B3019611F0AC70D9F784
:1001B0000895CF93CFB7CF93C395B39BE9F7B39B84
:1001C0000BC0B39B09C0B39B07C0B39B05C0B39BD7
:1001D00003C0B39B01C0D3C00F92DF93C0919D00B9
:1001E000DD27CC55DF4F012EB39B03C0DF910F906D
:1001F000E6CF2F930F931F934F932FEF4F6F06B3BD
:1002000003FB20F95F933F9350E03BE065C016B3DA
:100210000126502953FDC89556B3012703FB25F944
:100220002F7306B3B1F05027102713FB26F906B23F
:100230002230F0F000C016B3012703FB27F9012696
:10024000502906B22430E8F54F77206816B3000035
:10025000F6CF50274F7D206206B2102F000000C05D
:1002600006B300265029102713FB26F906B2E2CF69
:100270004F7B06B3206400C0DACF012650291C70E2
:1002800006B269F14E7F2160012F16B328C0002607
:1002900050294D7F06B22260102F29C00126502917
:1002A0004B7F06B22460012F2DC016B301265029C2
:1002B000477F2860000006B22EC04F7E06B3206143
:1002C00030C0422706B3499300265029102706B2B2
:1002D0004FEF13FB20F9297F16B379F21C7059F107
:1002E0000126502906B2012703FB21F9237F06B31B
:1002F00071F2002650293150D0F006B2102713FBBE
:1003000022F9277E16B351F201265029012703FB5B
:1003100006B223F92F7C49F2000006B3102713FB25
:1003200024F90026502906B22F7939F270CF10E453
:100330001ABF002717C03B503195C31BD04010E4B3
:100340001ABF0881033CF9F00B34E9F020919B00BF
:100350001981110F1213EDCF093651F10D3211F041
:10036000013E39F70093A2003F915F914F911F9199
:100370000F912F91DF910F90CAB7C6FD1DCFCF917E
:10038000CFBFCF9118952091A200222369F310913D
:10039000A000112321F5343022F13093A0002093E6
:1003A0009C0010919D003BE0311B30939D0019C0D3
:1003B0000091A00001309CF40AE53091650034FD05
:1003C00011C000936500C4E8D0E010C0052710E01C
:1003D00000C021C0052710E0C89508BB14C03AE54D
:1003E00001C032ED032EC0E0D0E032E017B31C6054
:1003F000C39A08B317BB5CE020E84FEF20FF052746
:1004000008BB279517951C3F28F700004552B0F709
:1004100020FF0527279508BB17951C3FB8F62991A3
:100420003A9561F7037F1091A100110F08BBC250EC
:10043000D04011F010939B0010E41ABF086017B36E
:10044000137F402F437F54E05A95F1F708BB17BB49
:1004500048BB8ACF9B016B3F91E0790728F4682F56
:10046000C90180509040B8D408958B3F21E0920795
:1004700030F48050904099D48093680002C010926C
:10048000680088E690E0089589E690E008958091FC
:100490006900982F91509E3F60F0811102C0C4986E
:1004A00001C0C49A8CB58F7D8CBD80B5886080BD3D
:1004B00007C090B5977F90BD9CB590629CBD8BBDE9
:1004C00080916A00982F91509E3F48F0811102C0A0
:1004D000C19801C0C19A8AB58F7D8ABD04C09AB502
:1004E00090629ABD88BD80916B00982F91509E3F7D
:1004F00048F0811102C0C09801C0C09A8AB58F77B8
:100500008ABD08959AB590689ABD89BD0895809373
:10051000690060936A0040936B00B9DF0895BC9A4C
:10052000B99AB89A40E060E080E0F1DF089541E0D8
:1005300050E06BEF71E08CE690E027D4A5DF43E05C
:1005400050E06CEF71E021D40895FF920F931F9358
:10055000CF93DF93CDE6D0E0F12C8E018881882304
:1005600001F189819A8101969A838983813A9F401A
:10057000C0F0FF2021F081E0F8120FC008C041E078
:1005800050E06BEF71E08CE690E017D406C07CDFA2
:1005900043E050E06CEF71E010D4F8011082128259
:1005A0001182F3942396F2E0FF12D7CFDF91CF911F
:1005B0001F910F91FF9008958CE690E0089590E0D0
:1005C000FC01EE0FFF1FE80FF91FE359FF4F81E019
:1005D000808312821182089580E00895CF93409124
:1005E000740030917300431708F085C0662309F446
:1005F00084C0E42FF0E0ED58FF4FDC012C91228302
:10060000242F2F5F20937400231708F46BC00DC0B4
:100610008191A22FB0E0AD58BF4F12968C932F5FFF
:10062000231708F462C0209374008091750088300D
:1006300048F48530C8F4833009F44DC0843009F0A3
:100640005EC007C0893091F140F18A3009F057C08F
:1006500039C040917800609177008091760057DF33
:1006600081E0ADDF81E04EC0C09176000DDF2091CA
:100670007500263039F0273049F0253049F4FC0167
:10068000C08306C0DC011196CC9302C0FC01C2837A
:10069000FEDE81E094DF81E035C08EDF20917600C0
:1006A000DC012C9380E08BDF81E02CC090917700FF
:1006B00080E020917600822B90937A0080937900DD
:1006C00081E020C06091790070917A00809176007D
:1006D000C1DE81E017C080917600883B91F40FD392
:1006E00081E010C0FC013196640F261391CF209356
:1006F000740080E007C081E005C080E003C081E0B5
:1007000001C081E0CF910895CF93DF93EC011CD21B
:1007100088818076803209F049C089818130C9F5AD
:100720008A81843099F028F4813049F1823079F55A
:1007300005C0883091F08A3051F516C080E690E00F
:1007400090939F0080939E0084E033C09DDE909341
:100750009F0080939E0083E02CC02EDF90939F002B
:1007600080939E0081E025C08091790090917A006D
:100770007CDE90939F0080939E0081E01AC084E607
:1007800090E090939F0080939E0081E012C080E0F3
:1007900010C0893069F48E818093730010927400C8
:1007A000853010F080E005C08FEF03C080E001C00D
:1007B00080E0DF91CF910895DF92EF92FF920F9347
:1007C0001F93CF93DF93F89408E010E0E12C689436
:1007D000FF24F7F8DF2CDE0CD1BED8DCC82FD92FD0
:1007E000C43389E0D8070CF4ED2CF69401501109BC
:1007F00089F78E2D815081BF81B70E2D10E00F5FDC
:100800001F4F90E008171907B4F0C0DC84539940DB
:100810009C0122F422273327281B390B2C173D0774
:1008200014F4E1B6E90181B78F5F81BF81B790E031
:100830000817190754F7E1BE789461B78FEF91E07C
:10084000CBD2DF91CF911F910F91FF90EF90DF906E
:1008500008958FEF91E0A9D28F3F09F081BF0895ED
:10086000CF93DF936091A00063500AF4CFC0209132
:100870009D008CE090E0821B9109EC01CC55DF4F8C
:1008800080919C008D3209F0B0C0683009F0BCC086
:1008900083EC809384008AE58093650010927B004E
:1008A0008881807619F0CE012FDF8BC09A8110925B
:1008B0008D008981811106C010928E002DE830E0F4
:1008C00082E07BC0853031F49093A1002DE830E0C8
:1008D00080E073C0863009F050C08B81813041F4D4
:1008E00089EA90E090939F0080939E0082E141C04E
:1008F000823041F487E890E090939F0080939E00BF
:1009000082E237C08330F1F4911108C08DEF90E09E
:1009100090939F0080939E0084E02BC0913041F41F
:100920008DED90E090939F0080939E0080E221C027
:100930009230E1F48BEB90E090939F0080939E00C7
:1009400082E217C0813241F489E990E090939F00E0
:1009500080939E0089E00DC0823251F48EE190E0D8
:1009600090939F0080939E0089E603C080E001C0C1
:1009700080E090E490937B0024C0883099F0893027
:1009800031F49093A3002DE830E080E016C08A3067
:1009900069F08B3079F48BE4809390002DE830E09F
:1009A00080E00BC023EA30E081E007C02DE830E0B2
:1009B00081E003C02DE830E080E030939F00209379
:1009C0009E008F3F41F4988199230CF48E8190E82A
:1009D00090937B0007C09F81911104C09E8198175E
:1009E00008F4892F809366000FC080917B008823D4
:1009F0005CF4CE01F3DD8F3F21F48EE1809365003E
:100A000003C08111109266001092A00080916500D1
:100A100084FF4CC0909166009F3F09F447C0C92FE6
:100A2000993008F0C8E09C1B90936600E4E8F0E081
:100A3000908188E889278083CC2309F459C080916C
:100A40007B00882334F46C2F85E890E0C5DDC82F47
:100A50001AC0E0919E00F0919F0086FF09C09C2F74
:100A6000A5E8B0E084918D9331969150D9F707C0F5
:100A70009C2FA5E8B0E081918D939150E1F7F09320
:100A80009F00E0939E00C93058F46C2F85E890E0F9
:100A900079DBCC5FCC3040F48FEF8093660004C0EC
:100AA0008FEF80936600CEE1C093650086B38C70B3
:100AB000B1F483E196B39C7099F48150D9F7109208
:100AC000A10010929B00C1E08111C0E080917C00E8
:100AD000C81302C013C070DEC0937C000FC084E155
:100AE000C1E08111C0E080917C00C813F4CF06C042
:100AF0006C2F85E890E046DBCC5FCECFDF91CF91C5
:100B0000089585B7826085BF8BB780648BBF8BE407
:100B1000809390008AE580938F000895CF93C82F2B
:100B200081110AC00EC09CDE90917D009923D9F3FB
:100B300010927D00C15029F080917D00882399F3A7
:100B4000F7CFF6D0CF91089581E080937F00109287
:100B50008100109280000895CF93DF9300D01F9200
:100B6000CDB7DEB780E890E00FB6F89486BD96BDAD
:100B70000FBE88B980B5826080BD80B5816080BDC0
:100B800083EA8ABD83E083BF82E089BF87E080BFBC
:100B900080E68CBDC4DCCBDC77DC43E050E0BC01FC
:100BA000CE010196E9D055DEBB9ABCD0882331F145
:100BB00040E060E080E0ABDC6894DD24D4F80F2EE8
:100BC000F8EEEF2EF3E0FF2EF02D0CE911E0A895E2
:100BD000C701F8013197F1F70197D9F740E060E0DC
:100BE0008FEF95DCC701F8013197F1F70197D9F73D
:100BF00040E060E080E08BDCDA9449F784EC99E037
:100C00002CE931E0F9013197F1F70197D9F7BB9859
:100C100078DF789413E040E060E08FEF78DC88E2E2
:100C20007DDF40E06FEF80E072DC88E277DF4FEF3E
:100C300060E080E06CDC88E271DF115061F740E039
:100C400060E080E064DC82E369DF1EDC43E050E0CA
:100C5000BE016F5F7F4F90D01ADC76DF00E810E0B6
:100C60000F2EFFE7EF2EF0E0FF2EF02D80917D009C
:100C70008823D1F110927D009FDCFC01208122238A
:100C800091F1F80180819181019691838083F70130
:100C90003081332361F0892F99278695869530E03E
:100CA0002817390700F51082109282001CC080912D
:100CB00082008F5F803118F48093820014C01092FC
:100CC0008200E2DBFC018081882311F08150808367
:100CD0008181882311F0815081838281882311F0E2
:100CE00081508283D4DB31DCBBDD80917E008823A0
:100CF00021F084E613DFBB9A34D01AD0B7CF81E05D
:100D000080937E0008951F920F920FB60F921124C8
:100D10008F9381E080937D008F910F900FBE0F9095
:100D20001F9018958091BA0083FB882780F9089559
:100D300080918300882329F081B5886481BD109259
:100D4000830008951F920F920FB60F9211248F9374
:100D500081E0809383008F910F900FBE0F901F90C2
:100D60001895F89428E088E190E00FB6F894A895DB
:100D700081BD0FBE21BDFFCFFB01DC0102C0019090
:100D80000D9241505040D8F70895DC01CB01FC0191
:100D9000E199FECF06C0FFBBEEBBE09A31960DB2E3
:100DA0000D9241505040B8F70895E199FECF9FBB96
:100DB0008EBBE09A99278DB30895DC01A40FB51F6F
:100DC0004150504040F0CB01840F951F2E9105D02B
:100DD00041505040D8F70895262FE199FECF9FBB90
:100DE0008EBBE09A01970DB2021639F01CBA2DBBEA
:100DF0000FB6F894E29AE19A0FBE0895F894FFCFE7
:080E00000002FB01F15AFF00A2
:00000001FF
